{
  "abi": [
    {
      "inputs": [
        {
          "internalType": "uint256",
          "name": "entranceFee",
          "type": "uint256"
        },
        {
          "internalType": "uint256",
          "name": "interval",
          "type": "uint256"
        },
        {
          "internalType": "address",
          "name": "vrfCoordinator",
          "type": "address"
        },
        {
          "internalType": "bytes32",
          "name": "gasLane",
          "type": "bytes32"
        },
        {
          "internalType": "uint64",
          "name": "subscriptionId",
          "type": "uint64"
        },
        {
          "internalType": "uint32",
          "name": "callbackGasLimit",
          "type": "uint32"
        }
      ],
      "stateMutability": "nonpayable",
      "type": "constructor"
    },
    {
      "inputs": [],
      "name": "Lottery_NotEnoughEthsent",
      "type": "error"
    },
    {
      "anonymous": false,
      "inputs": [
        {
          "indexed": true,
          "internalType": "address",
          "name": "player",
          "type": "address"
        }
      ],
      "name": "EnterLottery",
      "type": "event"
    },
    {
      "inputs": [],
      "name": "NUM_WORDS",
      "outputs": [
        {
          "internalType": "uint32",
          "name": "",
          "type": "uint32"
        }
      ],
      "stateMutability": "view",
      "type": "function"
    },
    {
      "inputs": [],
      "name": "enterLottery",
      "outputs": [],
      "stateMutability": "payable",
      "type": "function"
    },
    {
      "inputs": [],
      "name": "getentranceFee",
      "outputs": [
        {
          "internalType": "uint256",
          "name": "",
          "type": "uint256"
        }
      ],
      "stateMutability": "view",
      "type": "function"
    },
    {
      "inputs": [],
      "name": "pickWinner",
      "outputs": [],
      "stateMutability": "nonpayable",
      "type": "function"
    }
  ],
  "bytecode": {
    "object": "0x61014060405234801561001157600080fd5b5060405161048d38038061048d83398101604081905261003091610069565b60809590955260a0939093526001600160a01b0390911660c05260e0526001600160401b03166101005263ffffffff16610120526100f4565b60008060008060008060c0878903121561008257600080fd5b86516020880151604089015191975095506001600160a01b03811681146100a857600080fd5b6060880151608089015191955093506001600160401b03811681146100cc57600080fd5b60a088015190925063ffffffff811681146100e657600080fd5b809150509295509295509295565b60805160a05160c05160e051610100516101205161034561014860003960006101780152600061014501526000610116015260006101a90152600060cf015260008181609c015261022401526103456000f3fe60806040526004361061003f5760003560e01c80635d495aea1461004457806372cf6e341461005b5780639d55993b1461008a578063c1af5785146100c5575b600080fd5b34801561005057600080fd5b506100596100cd565b005b34801561006757600080fd5b50610070600181565b60405163ffffffff90911681526020015b60405180910390f35b34801561009657600080fd5b506040517f00000000000000000000000000000000000000000000000000000000000000008152602001610081565b610059610222565b7f0000000000000000000000000000000000000000000000000000000000000000600154426100fc91906102cf565b101561010757600080fd5b6040516305d3b1d360e41b81527f0000000000000000000000000000000000000000000000000000000000000000600482015267ffffffffffffffff7f00000000000000000000000000000000000000000000000000000000000000001660248201526003604482015263ffffffff7f0000000000000000000000000000000000000000000000000000000000000000166064820152600160848201526000907f00000000000000000000000000000000000000000000000000000000000000006001600160a01b031690635d3b1d309060a4016020604051808303816000875af11580156101fa573d6000803e3d6000fd5b505050506040513d601f19601f8201168201806040525081019061021e91906102f6565b5050565b7f000000000000000000000000000000000000000000000000000000000000000034101561026357604051634df04dbb60e01b815260040160405180910390fd5b600080546001810182558180527f290decd9548b62a8d60345a988386fc84ba6bc95484008f6362f93160ef3e5630180546001600160a01b0319163390811790915560405190917fde7ffaf8976e3b39d4fb74cd196ccae530bbcc6539e8f8e5db2cc61ef21b9ac291a2565b818103818111156102f057634e487b7160e01b600052601160045260246000fd5b92915050565b60006020828403121561030857600080fd5b505191905056fea264697066735822122042af02a04a5cff8fcd67ed0e220c9a49016ed7941b4b1213b9a53d4d42669fad64736f6c63430008130033",
    "linkReferences": {}
  },
  "methodIdentifiers": {
    "NUM_WORDS()": "72cf6e34",
    "enterLottery()": "c1af5785",
    "getentranceFee()": "9d55993b",
    "pickWinner()": "5d495aea"
  },
  "id": 1
}