{
  "abi": [
    {
      "inputs": [
        {
          "internalType": "uint256",
          "name": "n",
          "type": "uint256"
        }
      ],
      "name": "buy",
      "outputs": [],
      "stateMutability": "nonpayable",
      "type": "function"
    },
    {
      "inputs": [],
      "name": "numberOfTransactions",
      "outputs": [
        {
          "internalType": "uint256",
          "name": "",
          "type": "uint256"
        }
      ],
      "stateMutability": "view",
      "type": "function"
    },
    {
      "inputs": [
        {
          "internalType": "uint256",
          "name": "n",
          "type": "uint256"
        }
      ],
      "name": "sell",
      "outputs": [],
      "stateMutability": "nonpayable",
      "type": "function"
    },
    {
      "inputs": [
        {
          "internalType": "uint256",
          "name": "n",
          "type": "uint256"
        }
      ],
      "name": "showTransaction",
      "outputs": [
        {
          "internalType": "int256",
          "name": "",
          "type": "int256"
        }
      ],
      "stateMutability": "view",
      "type": "function"
    },
    {
      "inputs": [],
      "name": "stock",
      "outputs": [
        {
          "internalType": "uint256",
          "name": "",
          "type": "uint256"
        }
      ],
      "stateMutability": "view",
      "type": "function"
    },
    {
      "inputs": [],
      "name": "stock_data",
      "outputs": [
        {
          "internalType": "uint256",
          "name": "n",
          "type": "uint256"
        }
      ],
      "stateMutability": "view",
      "type": "function"
    },
    {
      "inputs": [
        {
          "internalType": "uint256",
          "name": "",
          "type": "uint256"
        }
      ],
      "name": "transaction",
      "outputs": [
        {
          "internalType": "int256",
          "name": "",
          "type": "int256"
        }
      ],
      "stateMutability": "view",
      "type": "function"
    }
  ],
  "bytecode": {
    "object": "0x60806040526000805534801561001457600080fd5b5061031c806100246000396000f3fe608060405234801561001057600080fd5b506004361061007d5760003560e01c8063d96a094a1161005b578063d96a094a146100b8578063e4849b32146100cd578063f8d3afa4146100e0578063fafa10cc146100e857600080fd5b806346bd08411461008257806399155c70146100a7578063bdf3c4ae146100af575b600080fd5b610095610090366004610259565b6100fb565b60405190815260200160405180910390f35b600054610095565b61009560005481565b6100cb6100c6366004610259565b61011c565b005b6100cb6100db366004610259565b6101b1565b600154610095565b6100956100f6366004610259565b610232565b6001818154811061010b57600080fd5b600091825260209091200154905081565b60001981106101675760405162461bcd60e51b815260206004820152601260248201527113585e08185b5bdd5b9d081c995858da195960721b60448201526064015b60405180910390fd5b806000808282546101789190610288565b90915550506001805480820182556000919091527fb10e2d527612073b26eecdfd717e6a320cf44b4afac2b0732d9fcbe2b7fa0cf60155565b60001981106101f75760405162461bcd60e51b815260206004820152601260248201527113585e08185b5bdd5b9d081c995858da195960721b604482015260640161015e565b8060008082825461020891906102a1565b9091555060019050610219826102b4565b8154600181018355600092835260209092209091015550565b600060018281548110610247576102476102d0565b90600052602060002001549050919050565b60006020828403121561026b57600080fd5b5035919050565b634e487b7160e01b600052601160045260246000fd5b8082018082111561029b5761029b610272565b92915050565b8181038181111561029b5761029b610272565b6000600160ff1b82016102c9576102c9610272565b5060000390565b634e487b7160e01b600052603260045260246000fdfea2646970667358221220b44542436a8a2e229fdf08185840ff5aa37b7f676b0457413ebd8545082374fb64736f6c63430008130033",
    "linkReferences": {}
  },
  "methodIdentifiers": {
    "buy(uint256)": "d96a094a",
    "numberOfTransactions()": "f8d3afa4",
    "sell(uint256)": "e4849b32",
    "showTransaction(uint256)": "fafa10cc",
    "stock()": "bdf3c4ae",
    "stock_data()": "99155c70",
    "transaction(uint256)": "46bd0841"
  },
  "id": 17
}