{
  "abi": [
    {
      "inputs": [],
      "stateMutability": "nonpayable",
      "type": "constructor"
    },
    {
      "inputs": [
        {
          "internalType": "string",
          "name": "title",
          "type": "string"
        },
        {
          "internalType": "string",
          "name": "author",
          "type": "string"
        },
        {
          "internalType": "string",
          "name": "publication",
          "type": "string"
        }
      ],
      "name": "addBook",
      "outputs": [],
      "stateMutability": "nonpayable",
      "type": "function"
    },
    {
      "inputs": [],
      "name": "bookCount",
      "outputs": [
        {
          "internalType": "uint256",
          "name": "",
          "type": "uint256"
        }
      ],
      "stateMutability": "view",
      "type": "function"
    },
    {
      "inputs": [
        {
          "internalType": "uint256",
          "name": "",
          "type": "uint256"
        }
      ],
      "name": "books",
      "outputs": [
        {
          "internalType": "string",
          "name": "title",
          "type": "string"
        },
        {
          "internalType": "string",
          "name": "author",
          "type": "string"
        },
        {
          "internalType": "string",
          "name": "publication",
          "type": "string"
        },
        {
          "internalType": "bool",
          "name": "available",
          "type": "bool"
        }
      ],
      "stateMutability": "view",
      "type": "function"
    },
    {
      "inputs": [
        {
          "internalType": "string",
          "name": "author",
          "type": "string"
        }
      ],
      "name": "findAllBooksOfAuthor",
      "outputs": [
        {
          "internalType": "uint256[]",
          "name": "",
          "type": "uint256[]"
        }
      ],
      "stateMutability": "view",
      "type": "function"
    },
    {
      "inputs": [
        {
          "internalType": "string",
          "name": "publication",
          "type": "string"
        }
      ],
      "name": "findAllBooksOfPublication",
      "outputs": [
        {
          "internalType": "uint256[]",
          "name": "",
          "type": "uint256[]"
        }
      ],
      "stateMutability": "view",
      "type": "function"
    },
    {
      "inputs": [
        {
          "internalType": "string",
          "name": "title",
          "type": "string"
        }
      ],
      "name": "findBookByTitle",
      "outputs": [
        {
          "internalType": "uint256[]",
          "name": "",
          "type": "uint256[]"
        }
      ],
      "stateMutability": "view",
      "type": "function"
    },
    {
      "inputs": [
        {
          "internalType": "uint256",
          "name": "id",
          "type": "uint256"
        }
      ],
      "name": "getDetailsById",
      "outputs": [
        {
          "internalType": "string",
          "name": "title",
          "type": "string"
        },
        {
          "internalType": "string",
          "name": "author",
          "type": "string"
        },
        {
          "internalType": "string",
          "name": "publication",
          "type": "string"
        },
        {
          "internalType": "bool",
          "name": "available",
          "type": "bool"
        }
      ],
      "stateMutability": "view",
      "type": "function"
    },
    {
      "inputs": [],
      "name": "owner",
      "outputs": [
        {
          "internalType": "address",
          "name": "",
          "type": "address"
        }
      ],
      "stateMutability": "view",
      "type": "function"
    },
    {
      "inputs": [
        {
          "internalType": "uint256",
          "name": "id",
          "type": "uint256"
        }
      ],
      "name": "removeBook",
      "outputs": [],
      "stateMutability": "nonpayable",
      "type": "function"
    },
    {
      "inputs": [
        {
          "internalType": "uint256",
          "name": "id",
          "type": "uint256"
        },
        {
          "internalType": "string",
          "name": "title",
          "type": "string"
        },
        {
          "internalType": "string",
          "name": "author",
          "type": "string"
        },
        {
          "internalType": "string",
          "name": "publication",
          "type": "string"
        },
        {
          "internalType": "bool",
          "name": "available",
          "type": "bool"
        }
      ],
      "name": "updateDetails",
      "outputs": [],
      "stateMutability": "nonpayable",
      "type": "function"
    }
  ],
  "bytecode": {
    "object": "0x608060405234801561001057600080fd5b50600280546001600160a01b031916331790556110e7806100326000396000f3fe608060405234801561001057600080fd5b506004361061009e5760003560e01c8063a9f06f9111610066578063a9f06f9114610142578063b905ad7814610155578063ba649f4e1461016c578063bec0d7991461017f578063d5b406581461019257600080fd5b80635aac3945146100a357806368744046146100b857806369c46826146100e45780638da5cb5b146100f75780639912348614610122575b600080fd5b6100b66100b1366004610c15565b6101a5565b005b6100cb6100c6366004610cc1565b610294565b6040516100db9493929190610d20565b60405180910390f35b6100b66100f2366004610d6d565b610457565b60025461010a906001600160a01b031681565b6040516001600160a01b0390911681526020016100db565b610135610130366004610df5565b610521565b6040516100db9190610e2a565b610135610150366004610df5565b610602565b61015e60015481565b6040519081526020016100db565b6100cb61017a366004610cc1565b6106d0565b6100b661018d366004610cc1565b61097b565b6101356101a0366004610df5565b6109ff565b6002546001600160a01b031633146101d85760405162461bcd60e51b81526004016101cf90610e6e565b60405180910390fd5b60015485111561021c5760405162461bcd60e51b815260206004820152600f60248201526e125b9d985b1a5908189bdbdac81251608a1b60448201526064016101cf565b60008581526020819052604090206102348582610f3e565b5060008581526020819052604090206001016102508482610f3e565b50600085815260208190526040902060020161026c8382610f3e565b50600094855260208590526040909420600301805460ff191694151594909417909355505050565b6000602081905290815260409020805481906102af90610eb5565b80601f01602080910402602001604051908101604052809291908181526020018280546102db90610eb5565b80156103285780601f106102fd57610100808354040283529160200191610328565b820191906000526020600020905b81548152906001019060200180831161030b57829003601f168201915b50505050509080600101805461033d90610eb5565b80601f016020809104026020016040519081016040528092919081815260200182805461036990610eb5565b80156103b65780601f1061038b576101008083540402835291602001916103b6565b820191906000526020600020905b81548152906001019060200180831161039957829003601f168201915b5050505050908060020180546103cb90610eb5565b80601f01602080910402602001604051908101604052809291908181526020018280546103f790610eb5565b80156104445780601f1061041957610100808354040283529160200191610444565b820191906000526020600020905b81548152906001019060200180831161042757829003601f168201915b5050506003909301549192505060ff1684565b6002546001600160a01b031633146104815760405162461bcd60e51b81526004016101cf90610e6e565b6001805490600061049183610ffe565b90915550506040805160808101825284815260208082018590528183018490526001606083018190525460009081529081905291909120815181906104d69082610f3e565b50602082015160018201906104eb9082610f3e565b50604082015160028201906105009082610f3e565b50606091909101516003909101805460ff1916911515919091179055505050565b6060600060015467ffffffffffffffff81111561054057610540610b72565b604051908082528060200260200182016040528015610569578160200160208202803683370190505b509050600060015b60015481116105ef5784805190602001206000808381526020019081526020016000206000016040516105a49190611025565b6040518091039020036105dd57808383815181106105c4576105c461109b565b6020908102919091010152816105d981610ffe565b9250505b806105e781610ffe565b915050610571565b506105fa8282610acd565b949350505050565b6060600060015467ffffffffffffffff81111561062157610621610b72565b60405190808252806020026020018201604052801561064a578160200160208202803683370190505b509050600060015b60015481116105ef5784805190602001206000808381526020019081526020016000206002016040516106859190611025565b6040518091039020036106be57808383815181106106a5576106a561109b565b6020908102919091010152816106ba81610ffe565b9250505b806106c881610ffe565b915050610652565b6060806060600060015485111561071b5760405162461bcd60e51b815260206004820152600f60248201526e125b9d985b1a5908189bdbdac81251608a1b60448201526064016101cf565b60008581526020819052604080822081516080810190925280548290829061074290610eb5565b80601f016020809104026020016040519081016040528092919081815260200182805461076e90610eb5565b80156107bb5780601f10610790576101008083540402835291602001916107bb565b820191906000526020600020905b81548152906001019060200180831161079e57829003601f168201915b505050505081526020016001820180546107d490610eb5565b80601f016020809104026020016040519081016040528092919081815260200182805461080090610eb5565b801561084d5780601f106108225761010080835404028352916020019161084d565b820191906000526020600020905b81548152906001019060200180831161083057829003601f168201915b5050505050815260200160028201805461086690610eb5565b80601f016020809104026020016040519081016040528092919081815260200182805461089290610eb5565b80156108df5780601f106108b4576101008083540402835291602001916108df565b820191906000526020600020905b8154815290600101906020018083116108c257829003601f168201915b50505091835250506003919091015460ff16151560209091015260608101519091508061091657506002546001600160a01b031633145b61095a5760405162461bcd60e51b8152602060048201526015602482015274426f6f6b206973206e6f7420617661696c61626c6560581b60448201526064016101cf565b80516020820151604083015160609093015191989097509195509350915050565b6002546001600160a01b031633146109a55760405162461bcd60e51b81526004016101cf90610e6e565b6001548111156109e45760405162461bcd60e51b815260206004820152600a602482015269125b9d985b1a5908125960b21b60448201526064016101cf565b6000908152602081905260409020600301805460ff19169055565b6060600060015467ffffffffffffffff811115610a1e57610a1e610b72565b604051908082528060200260200182016040528015610a47578160200160208202803683370190505b509050600060015b60015481116105ef578480519060200120600080838152602001908152602001600020600101604051610a829190611025565b604051809103902003610abb5780838381518110610aa257610aa261109b565b602090810291909101015281610ab781610ffe565b9250505b80610ac581610ffe565b915050610a4f565b606060008267ffffffffffffffff811115610aea57610aea610b72565b604051908082528060200260200182016040528015610b13578160200160208202803683370190505b50905060005b83811015610b6a57848181518110610b3357610b3361109b565b6020026020010151828281518110610b4d57610b4d61109b565b602090810291909101015280610b6281610ffe565b915050610b19565b509392505050565b634e487b7160e01b600052604160045260246000fd5b600082601f830112610b9957600080fd5b813567ffffffffffffffff80821115610bb457610bb4610b72565b604051601f8301601f19908116603f01168101908282118183101715610bdc57610bdc610b72565b81604052838152866020858801011115610bf557600080fd5b836020870160208301376000602085830101528094505050505092915050565b600080600080600060a08688031215610c2d57600080fd5b85359450602086013567ffffffffffffffff80821115610c4c57600080fd5b610c5889838a01610b88565b95506040880135915080821115610c6e57600080fd5b610c7a89838a01610b88565b94506060880135915080821115610c9057600080fd5b50610c9d88828901610b88565b92505060808601358015158114610cb357600080fd5b809150509295509295909350565b600060208284031215610cd357600080fd5b5035919050565b6000815180845260005b81811015610d0057602081850181015186830182015201610ce4565b506000602082860101526020601f19601f83011685010191505092915050565b608081526000610d336080830187610cda565b8281036020840152610d458187610cda565b90508281036040840152610d598186610cda565b915050821515606083015295945050505050565b600080600060608486031215610d8257600080fd5b833567ffffffffffffffff80821115610d9a57600080fd5b610da687838801610b88565b94506020860135915080821115610dbc57600080fd5b610dc887838801610b88565b93506040860135915080821115610dde57600080fd5b50610deb86828701610b88565b9150509250925092565b600060208284031215610e0757600080fd5b813567ffffffffffffffff811115610e1e57600080fd5b6105fa84828501610b88565b6020808252825182820181905260009190848201906040850190845b81811015610e6257835183529284019291840191600101610e46565b50909695505050505050565b60208082526027908201527f4f6e6c7920746865206f776e65722063616e20616363657373207468697320666040820152663ab731ba34b7b760c91b606082015260800190565b600181811c90821680610ec957607f821691505b602082108103610ee957634e487b7160e01b600052602260045260246000fd5b50919050565b601f821115610f3957600081815260208120601f850160051c81016020861015610f165750805b601f850160051c820191505b81811015610f3557828155600101610f22565b5050505b505050565b815167ffffffffffffffff811115610f5857610f58610b72565b610f6c81610f668454610eb5565b84610eef565b602080601f831160018114610fa15760008415610f895750858301515b600019600386901b1c1916600185901b178555610f35565b600085815260208120601f198616915b82811015610fd057888601518255948401946001909101908401610fb1565b5085821015610fee5787850151600019600388901b60f8161c191681555b5050505050600190811b01905550565b60006001820161101e57634e487b7160e01b600052601160045260246000fd5b5060010190565b600080835461103381610eb5565b6001828116801561104b57600181146110605761108f565b60ff198416875282151583028701945061108f565b8760005260208060002060005b858110156110865781548a82015290840190820161106d565b50505082870194505b50929695505050505050565b634e487b7160e01b600052603260045260246000fdfea2646970667358221220d9aa9a7974d0f2e46aacc48ebe91f0367e2120948f3e06ce8d477807acd791b264736f6c63430008110033",
    "linkReferences": {}
  },
  "methodIdentifiers": {
    "addBook(string,string,string)": "69c46826",
    "bookCount()": "b905ad78",
    "books(uint256)": "68744046",
    "findAllBooksOfAuthor(string)": "d5b40658",
    "findAllBooksOfPublication(string)": "a9f06f91",
    "findBookByTitle(string)": "99123486",
    "getDetailsById(uint256)": "ba649f4e",
    "owner()": "8da5cb5b",
    "removeBook(uint256)": "bec0d799",
    "updateDetails(uint256,string,string,string,bool)": "5aac3945"
  },
  "id": 17
}